:020000040000FA
:1000000005280000000000000000031383160030E4
:10001000860083120030860006142D2006102D2045
:1000200086142D2086102D2006152D2006112D203A
:1000300086152D2086112D2006162D2006122D2026
:1000400086162D2086122D2006172D2006132D2012
:1000500086172D2086132D200C282830A20033204F
:10006000A20B2F280800FA30A1003920A10B352857
:0C0070000800A530A000A00B3B280800F1
:04007C000034003418
:02400E00FB3F76
:00000001FF
